:100000000C94031B0C94341B0C94341B0C94341B65
:100010000C94341B0C94341B0C94341B0C94341B24
:100020000C94341B0C94341B0C94341B0C94341B14
:100030000C94341B0C945EB50C94341B0C94341B40
:100040000C94341B0C94BA850C94341B0C94341B04
:100050000C94341B0C94341B0C94FD6A0C9495EC9A
:100060000C94341B0C9429C20C94341B0C94341B38
:100070000C94341B0C94341B0C94341B0C94341BC4
:100080000C94728D0C94341B0C94341B0C94341B04
:100090000C94341B0C94341B0C94341B0C94341BA4
:1000A0000C94341B0C94341B0C94448D0C94341B12
:1000B0000C94341B0C94341B0C94341B0C94168D30
:1000C0000C94341B0C94341B0C94341B0C94341B74
:1000D0000C94341B0C94341B0C94341B0C94341B64
:1000E0000C94341B20AF23AF12AF16AF1CAF5AAF26
:1000F00027AF2BAF31AF35AF39AF3FAF43AF47AFCE
:100100005AAF4DAF51AF55AFA5B08BB08EB091B0D7
:1001100094B0A0B097B0B1B09AB09DB0D8B3DDB3F1
:10012000E2B3ECB3F6B36FB400B408B410B41AB4CD
:1001300024B42EB43DB447B46FB451B45BB465B4C9
:10014000F9E971E8AAE835EAAAE8AAE8AAE8AAE87B
:10015000AAE8AAE8AAE8AAE8AAE8AAE8AAE8AAE80F
:10016000AAE8AAE8AAE8AAE8AAE8AAE8AAE8AAE8FF
:10017000AAE8AAE8AAE8AAE8AAE8AAE82FEAAAE868
:10018000AAE8AAE8AAE8AAE8AAE8AAE8AAE808EA7F
:10019000AAE8AAE8AAE8AAE8AAE8AAE8AAE8AAE8CF
:1001A000AAE8AAE84CEAA7E8084AD73B3BCE016E8A
:1001B00084BCBFFDC12F3D6C74319ABD56833DDABE
:1001C0003D00C77F11BED9E4BB4C3E916BAAAABECD
:1001D000000000803F05A84CCDB2D44EB93836A9F6
:1001E000020C50B9918688083CA6AAAA2ABE000033
:1001F00000803F004E414E494E495459494E46CD2C
:10020000CCCC3D0AD7233C17B7D13877CC2B3295CD
:1002100095E6241FB14F0A000020410000C84200AB
:10022000401C4620BCBE4CCA1B0E5AAEC59D740075
:10023000407A10F35A00A0724E18090010A5D4E8B5
:100240000000E87648170000E40B54020000CA9A48
:100250003B000000E1F5050000809698000000409A
:10026000420F000000A086010000001027000000DF
:1002700000E803000000006400000000000A000025
:100280000000000100000000002C76D888DC674FD9
:100290000823DFC1DFAE59E1B1B796E5E3E453C609
:1002A0003AE651997696E8E6C28426EB898C9B6201
:1002B000ED407C6FFCEFBC9C9F40F2BAA56FA5F4AB
:1002C00090055A2AF75C936B6CF9676DC11BFCE0D3
:1002D000E40D47FEF520E6B500D0ED902E03009426
:1002E0003577050080841E080000204E0A000000BB
:1002F000C80C333333330F986E12831141EF8D21C5
:1003000014893BE65516CFFEE6DB18D1844B381B2B
:10031000F77C1D901DA4BBE424203284725E2281F0
:1003200000C9F124ECA1E53D27434F4D4D554E4901
:10033000434154494F4E0044525952554E00455284
:10034000524F525300494E464F004543484F0047D5
:10035000322F47332062616420706172616D657471
:100360006572730A00536C6565702E2E2E00436C07
:1003700069636B20746F20726573756D652E2E2E08
:10038000004E6F206D6F76652E00456E64206669A5
:100390006C65206C6973740A00426567696E20663B
:1003A000696C65206C6973740A00286E6F20666939
:1003B0006C6529005344207072696E74696E672001
:1003C0006279746520004E6F742053442070726906
:1003D0006E74696E670A0043757272656E7420668A
:1003E000696C653A20002569730025696D202569CF
:1003F00073002569682025696D20256973002569CA
:1004000064202569682025696D20256973002569A8
:100410007920256964202569682025696D20256972
:1004200073005072696E742074696D653A20004AD9
:100430000345033E03370329036F666600444542C4
:1004400055473A004B494C4C45442E20004D313124
:10045000332053006F6B003344205072696E746513
:1004600072204F66662E002C20002C200054484538
:10047000524D414C5F50524F54454354494F4E00EA
:100480004155544F5245504F52545F53445F53545B
:100490004154555300454D455247454E43595F50D1
:1004A000415253455200434153455F4C49474854DC
:1004B0005F4252494748544E45535300544F4747B3
:1004C0004C455F4C494748545300534F465457419D
:1004D00052455F504F574552004255494C445F507A
:1004E000455243454E54004C4556454C494E475F96
:1004F00044415441005A5F50524F424500415554C7
:100500004F4C4556454C005052494E545F4A4F425D
:100510000050524F4752455353004155544F524596
:10052000504F52545F54454D5000564F4C554D4519
:100530005452494300454550524F4D00534552498E
:10054000414C5F584F4E5F584F4646004649524D0A
:10055000574152455F4E414D453A4D61726C696E4F
:100560002020284769746875622920534F555243EB
:10057000455F434F44455F55524C3A6874747073FD
:100580003A2F2F6769746875622E636F6D2F4D6106
:10059000726C696E4669726D776172652F4D61721A
:1005A0006C696E2050524F544F434F4C5F5645522A
:1005B00053494F4E3A312E30204D414348494E4524
:1005C0005F545950453A3344205072696E746572D5
:1005D0002045585452554445525F434F554E543A66
:1005E0003120555549443A63656465326132662D60
:1005F000343161322D343734382D396231322D6344
:1006000035356336326633363766660A002F2F205B
:10061000004D31343520533C696E6465783E206F5F
:100620007574206F662072616E67652028302D31E9
:10063000290A00205400205200416363656C6572F2
:100640006174696F6E3A2050004F6666736574730B
:10065000206170706C696564004572723A20546F55
:100660006F206661722100546F6F20666172206690
:10067000726F6D207265666572656E636520706F5E
:10068000696E740A00205A00205900580020204D3D
:1006900061783A2000205A00205900580020204D4F
:1006A000696E3A20004F6E20004F666600536F66F9
:1006B0007420656E6473746F70733A200020466C0A
:1006C0006F773A2000000136372603FFFFFF353CE5
:1006D0003D380EFFFFFF312E303E12FFFFFFFF2897
:1006E000FF0C0809FFFFFF1A1C18FFFF2A08440A25
:1006F000FF4320643A0020693A0020703A00496EB6
:1007000076616C69642065787472756465720A003C
:1007100043290A0061626C656420286D696E20744B
:10072000656D702000436F6C642065787472756429
:1007300065732061726520004E6F206361736520D0
:100740006C696768740A00454550524F4D204F4B05
:100750000A00416374697665204578747275646532
:10076000723A2000496E76616C6964206578747213
:10077000756465720A0000000000000000000000BF
:100780000000000000000000000000000000000069
:100790000000000000000000000000000000000059
:1007A0000000000000000000000000000000000049
:1007B0000000000000000000000000000000000039
:1007C0000000000000000000000000000000000029
:1007D0000000000000000000000000000000000019
:1007E0000000000000000000000000000000000009
:1007F00000000000000000000000000000000000F9
:1008000000000000000000000000000000000000E8
:1008100000000000000000000000000000000000D8
:1008200000000000000000000000000000000000C8
:1008300000000000000000000000000000000000B8
:1008400000000000000000000000000000000000A8
:100850000000000000000000000000000000000098
:100860000000000000000000000000000000000088
:100870000000000000000000000000000000000078
:100880000000000000000000000000000000000068
:100890000000000000000000000000000000000058
:1008A0000000000000000000000000000000000048
:1008B0000000000000000000000000000000000038
:1008C0000000000000000000000000000000000028
:1008D0000000000000000000000000000000000018
:1008E0000000000000000000000000000000000008
:1008F00000000000000000000000000000000000F8
:10090000000000000000000000000000000000C027
:1009100000000000000007F07FF8000FFF0001E07A
:100920000000000000000F783C3E00078F8001E0CF
:100930000000600000001C3C1C0F000383C000C0CE
:100940000000E00000001C3C1C0F000381C0000000
:100950000000E0000000003C1C07800381CEF9E1AC
:10096000FF81E01F0EF000FC1C07800383DFFFE324
:10097000FFC3FE7FDFF803F01C03800383C7B8E0EA
:10098000F1C0E071C7B800781C0380038F8700E0D6
:10099000E1C0E0F1E700003C1C038003FF0700E03A
:1009A000E1C0E0FFE700001E1C078003800700E0B5
:1009B000E1C0E0E00700381E1C078003800700E06C
:1009C000E1C0E0E007003C1E1C078003800700E058
:1009D000E1C0E0F007003C3C1C0F0003800700E092
:1009E000E1C0E0F0E7001F7C3C7E0007C00F81F112
:1009F000F3E0F67FCF800FF07FFC000FE01FC3FB1A
:100A0000FFF0FE3F9FC0000000000000000000005B
:100A100000007C000000000000000000000000005A
:100A200000000000000000000000000000000000C6
:100A300000000000000000000000000000000000B6
:100A400000000000000000000000000000000000A6
:100A50000000000000000000000000000000000096
:100A60000000000000000000000000000000000086
:100A70000000000000000000000000000000000076
:100A80000000000000000000000000000000000066
:100A90000000000000000000000000000000000056
:100AA0000000000000000000000000000000000046
:100AB0000000000000000000000000000000000036
:100AC0000000000000000000000000000000000026
:100AD0000000000000000000000000000000000016
:100AE0000000000000000000000000000000000006
:100AF00000000000000000000000000000000000F6
:100B000000000000000000000000000000000000E5
:100B100000000000000000000000000000000000D5
:100B200000000000000000000000000000000000C5
:100B300000000000000000000000000000000000B5
:100B400000000000000000000000000000000000A5
:100B50000000000000000000000000000000000095
:100B60000000000000000000000000000000000085
:100B7000000000000000494E56414C4944204441C9
:100B80005441004D32342053256C642054256C644C
:100B9000004D3233202573004730205A257300471B
:100BA0003238205830205930004730205A25730001
:100BB000473932205A2573204525730070776F66B8
:100BC0006620686F6D650A000D0A72656164206AAF
:100BD0006F6252637646696C654E616D65204F4B5E
:100BE0000D0A0A002020506C616E6E6572427566B7
:100BF00066657242797465733A20002046726565B5
:100C0000204D656D6F72793A2000436F6D70696C8D
:100C100065643A204A756E20313120323031390A0C
:100C200000207C20417574686F723A20286E6F6EC8
:100C3000652C2064656661756C7420636F6E6669EF
:100C400067290A00323031382D30382D30310020FC
:100C50004C61737420557064617465643A20000AB5
:100C6000004D61726C696E0020536F66747761721B
:100C7000652052657365740A002057617463686467
:100C80006F672052657365740A002042726F776E39
:100C9000206F75742052657365740A00204578745E
:100CA00065726E616C2052657365740A00506F77CF
:100CB000657255700A0073746172740A006175740C
:100CC0006F25692E67006572726F72207772697482
:100CD000696E6720746F2066696C650A000D0A0AE8
:100CE000000D0A204463757272656E745F706F73D5
:100CF0006974696F6E20000D0A2053637572726506
:100D00006E745F706F736974696F6E2000456E64F6
:100D100073746F707320256320256320256320255D
:100D20006300205A3A0020593A0020583A00656E74
:100D30006473746F7073206869743A2000446F6E36
:100D40006520736176696E672066696C652E0A009E
:100D50004D3239006F6B0020746F6F206C6F6E67BF
:100D600020657874727573696F6E20707265766530
:100D70006E7465640A0020636F6C64206578747219
:100D80007573696F6E2070726576656E7465640A3E
:100D900000627573793A2070617573656420666FBF
:100DA0007220696E7075740A00627573793A2070EA
:100DB000617573656420666F7220757365720A00D1
:100DC000627573793A2070726F63657373696E67C9
:100DD0000A004B494C4C45442E20004B494C4C20BA
:100DE000636175736564206279204B494C4C2062C5
:100DF0007574746F6E2F70696E0A004B494C4C45C8
:100E0000442E20004B494C4C20636175736564206F
:100E1000627920746F6F206D75636820696E6163FD
:100E2000746976652074696D65202D206375727212
:100E3000656E7420636F6D6D616E643A20004D368F
:100E4000303000506C6561736520726573657400A5
:100E50005052494E5445522048414C54454400504C
:100E600072696E7465722068616C7465642E206BA3
:100E7000696C6C28292063616C6C6564210A000030
:100E80000000C10000000000000000000048420017
:100E900000484200008040000000005761726E6907
:100EA0006E673A20486F6D696E672042756D7020DD
:100EB00044697669736F72203C20310A0002020493
:100EC0000000A0400000A04000000040000074436B
:100ED0000000694300007A43FFFFFF4D33310053A8
:100EE000442072656164206572726F720A00446FFB
:100EF0006E65207072696E74696E672066696C65D4
:100F00000A004B494C4C45442E200053544F50503E
:100F100045442E20005072696E7465722073746FA0
:100F2000707065642064756520746F206572726FDF
:100F300072732E2046697820746865206572726F1E
:100F40007220616E6420757365204D3939392074C3
:100F50006F20726573746172742E202854656D70F1
:100F6000657261747572652069732072657365744A
:100F70002E20536574206974206166746572207236
:100F8000657374617274696E67290A004E6F20433D
:100F90006865636B73756D2077697468206C696E22
:100FA00065206E756D6265722C204C617374204CE7
:100FB000696E653A20004E6F20436865636B7375F8
:100FC0006D2077697468206C696E65206E756D623E
:100FD00065722C204C617374204C696E653A200058
:100FE000636865636B73756D206D69736D617463A0
:100FF000682C204C617374204C696E653A20004C5B
:10100000696E65204E756D626572206973206E6F22
:1010100074204C617374204C696E65204E756D624E
:1010200065722B312C204C617374204C696E653ACB
:1010300020004D3131300000060900FE00000000A4
:101040000001090008FE000005080806000040F045
:10105000C88888987810050808060000C0F88888B5
:10106000888888F80505050600012030F83020053D
:1010700008080600002070F820202020E00509095B
:101080000600FF2070A8A8B8888870200509090606
:1010900000FFE080C0B0A828302828050909060014
:1010A000FFF8A88888888888A8F8050A0A0600FE3C
:1010B000205050505088A8A88870030303060003EE
:1010C00040A04025753A2530327500253032753AFA
:1010D000253032750025756420253032753A25306B
:1010E000327500202020202020005A0059002020A6
:1010F000202000580009200000000000000000002F
:10110000000000003FFFF0000000000000000000B1
:101110000000003800700000000000000000000027
:10112000000030FC30000000000000000000000063
:101130000020FC1000000000000000000000000083
:1011400020781000000000000000000000000020D7
:1011500030100000000000000000000000002C0023
:10116000D03FC0000000000000002082002E31D0DF
:101170007FE0000000000000001041002F7BD07FC6
:10118000E0000000000000001041002F7BD07FE055
:10119000000000000000002082002E31D03FC0007F
:1011A0000000000000004104002C00D03FC00000FF
:1011B00000000000008208002030107FE0000000E6
:1011C000000000008208002078107FE0000000008E
:1011D00000000041040020FC107FE000000000003F
:1011E000000020820030FC301F8000000000000062
:1011F000000000003800700F000000000000000038
:10120000FFFFC03FFFF0060000000000000000FFED
:10121000FFC000000000000000000000000000000F
:10122000003FFFF000000000000000000000000090
:1012300038007000000000000000000000000031D5
:10124000863000000000000000000000000023873E
:101250001000000000000000000000000027879040
:101260000000000000000000000000002F87D000F8
:1012700000000000000000000000002F03D03FC06D
:10128000000000000000002082002030107FE000FD
:101290000000000000001041002078107FE00000F6
:1012A00000000000001041002078107FE0000000E6
:1012B000000000002082002030103FC0000000002D
:1012C0000000004104002F03D03FC00000000000D8
:1012D00000008208002F87D07FE00000000000009F
:1012E000008208002787907FE000000000000000D7
:1012F0004104002387107FE0000000000000002070
:1013000082003186301F80000000000000000000D5
:10131000003800700F0000000000000000FFFFC058
:101320003FFFF0060000000000000000FFFFC000CB
:10133000000043616E6E6F74206F70656E20737570
:101340006264697220006563686F3A006F70656E51
:10135000206661696C65642C2046696C653A2000E2
:1013600057726974696E6720746F2066696C653A9C
:10137000200046696C652064656C657465643A009C
:1013800044656C6574696F6E206661696C65642C78
:101390002046696C653A20006F70656E2066616951
:1013A0006C65642C2046696C653A20004572726F4A
:1013B000723A00453120544845524D414C20525517
:1013C0004E415741590042454420544845524D41F1
:1013D0004C2052554E4157415900546865726D6119
:1013E0006C2052756E6177617900486F6D652025BC
:1013F00073257325732066697273740020666972A1
:1014000073740A005A0059005800486F6D65200037
:1014100020746F6F206C6F6E6720657874727573BF
:10142000696F6E2070726576656E7465640A00205F
:10143000636F6C6420657874727573696F6E207069
:10144000726576656E7465640A0020204E6F7A7A44
:101450006C653A2000200066696C616D656E7420D1
:101460007075726765005761697420666F720074E9
:101470006F20726573756D65005761697420666FC2
:1014800072207072696E7400436172642072656DBF
:101490006F766564004361726420696E736572746F
:1014A0006564005072656865617420504C41204548
:1014B0006E64005072656865617420504C41204232
:1014C0006564005072656865617420504C4100503D
:1014D0007265706172650050726568656174204163
:1014E000425320456E640050726568656174204106
:1014F0004253204265640050726568656174204102
:1015000042530050726570617265004261636B0006
:101510004E65787420506F696E74004D3432380017
:101520005072656865617420504C4100436F6F6C68
:10153000646F776E004368616E67652066696C61F1
:101540006D656E74004368616E67652066696C61E5
:101550006D656E74004D3630302042300044697342
:1015600061626C65207374657070657273004D38CC
:10157000340053657420686F6D65206F666673650F
:101580007473005072656865617420414253004C69
:101590006576656C20636F726E6572730041757459
:1015A0006F20686F6D6500473238004D6F7665209B
:1015B00061786973004D61696E004D6F76652058E2
:1015C000004D6F76652059004D6F7665205A0045B5
:1015D00078747275646572004D6F766520302E31B7
:1015E0006D6D004D6F766520316D6D004D6F7665C8
:1015F0002031306D6D004D6F766520617869730024
:101600004578747275646572004D6F7665205A0076
:101610004D6F76652059004D6F76652058006265E4
:10162000640A002C2073797374656D2073746F7075
:1016300070656421204865617465725F49443A2091
:10164000004265642068656174696E67206661693F
:101650006C65640048656174696E67206661696CD9
:1016600065640045312048656174696E6720666174
:10167000696C65640048656174696E6720666169BC
:101680006C65640070012C0190012701B0012201FA
:10169000C0011D01F00118011002130130020E01FA
:1016A0006002090190020401C002FF000003FA0079
:1016B0004003F5008003F000D003EB002004E600B7
:1016C0007004E100E004DC004005D700C005D20052
:1016D0004006CD00D006C8008007C3003008BE0019
:1016E000F008B900C009B400B00AAF00B00BAA00FE
:1016F000D00CA500000EA000500F9B00C01096005B
:101700005012910000148C00C0158700B0178200A1
:10171000B0197D00D01B7800001E730040206E00C1
:1017200090226900F024640040275F0090295A004D
:10173000E02B5500102E500020304B001032460098
:10174000E033410090353C001037370070383200EC
:10175000A0392D00B03A2800A03B2300603C1E00B9
:10176000103D1900903D1400103E0F00703E0A001D
:10177000C03E0500003F0000403FFBFF803FF6FFFA
:10178000C03FF1FF4531204572723A204D41585417
:10179000454D50004572723A204D415854454D50C8
:1017A00020424544004D415854454D5020747269C3
:1017B000676765726564004531204572723A204D55
:1017C000494E54454D50004572723A204D494E5491
:1017D000454D5020424544004D494E54454D502002
:1017E000747269676765726564004D3834205820EB
:1017F00059205A204500202F002042403A00204026
:101800003A00656E7175657565696E672022002006
:10181000496E76616C69642065787472756465726E
:101820002000000000C100000000000000000000D7
:101830006C430000694300007A43486F6D696E672E
:10184000206661696C65640050726F7465637465CD
:10185000642050696E0A0020573A004520436F6F9C
:101860006C696E672E2E2E00452048656174696E86
:10187000672E2E2E0020573A0042656420636F6F5A
:101880006C696E672E2E2E00426564206865617457
:10189000696E672E2E2E00205A3A0020593A0020F9
:1018A000436F756E7420583A0020453A00205A3A2A
:1018B0000020593A00583A003A004361703A00203B
:1018C0006F7574206F662072616E67650A005365DC
:1018D00072766F20003A200020536572766F2000E8
:1018E0004578747275646572004D6F7665205A0094
:1018F0004D6F76652059004D6F7665205800507207
:10190000657061726500496E697469616C697A65B8
:1019100020454550524F4D00436F6E74726F6C00FE
:10192000526573746F7265206661696C7361666578
:10193000004C6F61642073657474696E677300494D
:101940006E697469616C697A6520454550524F4DE6
:101950000053746F72652073657474696E677300E9
:1019600046696C616D656E74004D6F74696F6E00D1
:1019700054656D7065726174757265004D61696E54
:1019800000507265686561742041425320636F6E38
:1019900066005072656865617420504C4120636F29
:1019A0006E66005049442D44005049442D44005077
:1019B00049442D49005049442D49005049442D5077
:1019C000005049442D5000200820466163740020D7
:1019D000082046616374002008204D6178002008CB
:1019E000204D6178002008204D6178002008204DAE
:1019F000696E002008204D696E002008204D696E38
:101A0000004F6666004F6E20004175746F74656DFF
:101A1000700046616E2073706565640046616E20DB
:101A200073706565640046616E207370656564005F
:101A30004265640042656400426564004E6F7A7AD4
:101A40006C65004E6F7A7A6C65004E6F7A7A6C65C1
:101A500000436F6E74726F6C0053746F7265207305
:101A6000657474696E677300426564004265640062
:101A7000426564004E6F7A7A6C65004E6F7A7A6CBC
:101A800065004E6F7A7A6C650046616E20737065F2
:101A900065640046616E2073706565640046616E22
:101AA0002073706565640054656D7065726174754E
:101AB00072650024F4D43050C38E20C2A240178235
:101AC0008B7011127A910D816CD90AA861E108C757
:101AD000586607615143061E4B5D05C145A7041AB0
:101AE000411104093D9803713931034036DB026529
:101AF000339102D4305402802E1D02632CEE017506
:101B00002AC501B028A001102781018F2564012B6F
:101B1000244B01E0223401AC211F018D200D0180F6
:101B20001FFC00841EED00971DDF00B81CD200E6EC
:101B30001BC600201BBC00641AB200B219A8000A20
:101B400019A0006A189900D117910040178B00B5B1
:101B500016840031167E00B31579003A157300C75C
:101B6000146F0058146A00EE136600881363002592
:101B7000135E00C7125B006C12570015125400C1AF
:101B800011510070114F0021114B00D61049008DEA
:101B90001047004610440002104200C00F40008071
:101BA0000F3E00420F3C00060F3B00CB0E38009367
:101BB0000E37005C0E3500270E3400F30D3200C1E5
:101BC0000D3100900D3000600D2E00320D2D0005FE
:101BD0000D2C00D90C2B00AE0C2900850C29005CC3
:101BE0000C2700350C27000E0C2600E80B2400C43F
:101BF0000B2400A00B23007D0B23005A0B2100397E
:101C00000B2100180B2000F80A1F00D90A1E00BB88
:101C10000A1E009D0A1D00800A1D00630A1C004761
:101C20000A1B002C0A1B00110A1A00F7091A00DD12
:101C3000091900C4091900AB091900920917007BA2
:101C4000091800630917004C091600360916002010
:101C50000916000A091500F5081500E0081400CC63
:101C6000081400B8081400A4081400900813007D9C
:101C70000812006B081300580812004608120034BE
:101C8000081100230811001208110001081100F0CA
:101C9000071000E0071000D0071000C0071000B0C8
:101CA000070F00A107100091070E0083070F0074B3
:101CB000070F0065070E0057070E0049070E003B8F
:101CC000070D002E070E0020070D0013070D00065C
:101CD000070D00F9060C00ED060D00E0060C00D41F
:101CE000060C00C8060C00BC060C00B0060C00A4D4
:101CF000060B0099060C008D060B0082060B007780
:101D0000060B006C060B0061060A0057060B004C20
:101D1000060A0042060A0038060A002E060A0024B7
:101D2000060A001A060A001006090007060A00FD46
:101D3000050900F4050900EB050900E2050900D9D1
:101D4000050900D0050900C7050900BE050900B551
:101D5000050800AD050800A50509009C05080094CC
:101D60000508008C050800840508007C050800743F
:101D70000508006C050700650508005D05070056AD
:101D80000508004E05070047050700400508003814
:101D9000050700310507002A050700230507001C79
:101DA000050600160507000F0507000805060002D6
:101DB000050700FB040600F5040700EE040600E832
:101DC000040600E2040700DB040600D5040600CF89
:101DD000040600C9040600C3040600BD040600B7DB
:101DE000040600B1040500AC040600A6040600A029
:101DF0000405009B04060095040500900406008A73
:101E000004050085040500800406007A04050075B9
:101E1000040500700405006B0405006604050061FC
:101E20000405005C04050057040500520405004D3C
:101E300004050048040500430405003E0404003A7C
:101E400004050035040500300404002C04050027B7
:101E5000040400230405001E0404001A04040016F0
:101E6000040500110404000D040400090405000425
:101E700004040000040400FC030400F8030400F45C
:101E8000030400F0030400EC030400E8030400E48E
:101E9000030400E0030400DC030400D8030400D4BE
:101EA000030400D0030400CC030400C8030300C5EE
:101EB00003030024F404D9201BC40C5C0E9804C452
:101EC000095F0265077101F405F900FB04B30048DE
:101ED000048700C10369005803550003034500BE91
:101EE000023A008402310053022A0029022500042C
:101EF000022000E4011C00C8011900AF011700987E
:101F000001140084011300710110006101100051DF
:101F1000010E0043010D0036010B002B010B0020C8
:101F2000010B00150109000C01090003010800FB69
:101F3000000800F3000800EB000700E4000600DEE4
:101F4000000600D8000600D2000600CC000500C73D
:101F5000000500C2000500BD000400B9000400B582
:101F6000000400B1000400AD000400A9000400A5B5
:101F7000000300A20003009F0004009B00030098E0
:101F80000003009500020093000300900003008D01
:101F90000002008B0003008800020086000200841B
:101FA000000300810002007F0002007D0002007B30
:101FB0000002007900020077000100760002007440
:101FC00000020072000100710002006F0002006D4B
:101FD0000001006C0002006A000100690002006755
:101FE000000100660001006500010064000200625B
:101FF00000010061000100600001005F0002005D5F
:102000000001005C0001005B0001005A0001005962
:102010000001005800010057000100560001005562
:102020000001005400010053000000530001005261
:1020300000010051000100500001004F0001004E5E
:102040000000004E0001004D0001004C0001004B5B
:102050000000004B0001004A000100490001004857
:102060000000004800010047000100460000004653
:10207000000100450000004500010044000100434C
:102080000000004300010042000000420001004146
:1020900000000041000100400001003F0000003F3F
:1020A0000001003E0000003E0001003D0000003D38
:1020B0000001003C0000003C0000003C0001003B2F
:1020C0000000003B0001003A0000003A0001003926
:1020D000000000390001003800000038000000381E
:1020E0000001003700000037000100360000003614
:1020F000000000360001003500000035000000350A
:1021000000010034000000340000003400010033FE
:1021100000000033000000330001003200000032F4
:1021200000000032000100310000003100000031E9
:102130000001003000000030000000300001002FDE
:102140000000002F0000002F0000002F0001002ED3
:102150000000002E0000002E0001002D0000002DC8
:102160000000002D0000002D0001002C0000002CBC
:102170000000002C0000002C0001002B0000002BB0
:102180000000002B0000002B0001002A0000002AA4
:102190000000002A0000002A000100290000002998
:1021A000000000290000002900000029000100288B
:1021B000000000280000002800000028000000287F
:1021C0000001002700000027000000270000002772
:1021D0000000002700010026000000260000002665
:1021E0000000002600000026000100250000002558
:1021F000000000250000002500000025000000254B
:10220000000100240000002400000024000000243D
:102210000000002400010023000000230000002330
:102220000000002300000023000000230000002322
:102230000001002200000022000000220000002215
:102240000000002200000022000100210000002107
:1022500000000021000000210000002100000021FA
:1022600000000021000100200000002000000020EC
:1022700000000020000000200000002000000020DE
:10228000000000200001001F0000001F0000001FD0
:102290000000001F0000001F0000001F0000001FC2
:1022A0000001001E0000001E0000001E0000001EB5
:1022B000000000043700001E290000511B000058D8
:1022C00010000010090000CC04000078020000415A
:1022D000010000454550524F4D206461746173699F
:1022E0007A65206572726F722E0A00290A002062D8
:1022F000797465733B20637263200053657474695D
:102300006E67732053746F726564202800290A0079
:102310002062797465733B206372632000207374BC
:102320006F7265642073657474696E67732072657B
:1023300074726965766564202800202863616C6387
:10234000756C6174656429210A0020213D200045D7
:102350004550524F4D20435243206D69736D617457
:102360006368202D202873746F7265642920002013
:1023700053697A653A2000496E6465783A200020F6
:102380004D61726C696E3D563535290A0028454508
:1023900050524F4D3D00454550524F4D207665728D
:1023A00073696F6E206D69736D61746368200023BB
:1023B000646566696E652044454641554C545F4BE3
:1023C00064200023646566696E6520444546415576
:1023D0004C545F4B69200023646566696E65204438
:1023E000454641554C545F4B7020005049442041B4
:1023F00075746F74756E652066696E69736865645F
:10240000212050757420746865206C617374204BB2
:10241000702C204B6920616E64204B6420636F6ECA
:102420007374616E74732066726F6D2062656C6F79
:102430007720696E746F20436F6E6669677572618D
:1024400074696F6E2E680A00504944204175746F9C
:1024500074756E65206661696C6564212074696DB0
:10246000656F75740A00453120544845524D414C02
:102470002052554E4157415900546865726D616C48
:102480002052756E6177617900453120486561742D
:10249000696E67206661696C65640048656174698E
:1024A0006E67206661696C6564005049442041751F
:1024B000746F74756E65206661696C656421205463
:1024C000656D706572617475726520746F6F2068D8
:1024D0006967680A00204B643A2000204B693A2063
:1024E00000204B703A20000A20436C6173736963CB
:1024F00020504944200A002054753A2000204B7592
:102500003A2000206D61783A2000206D696E3A20F3
:102510000020643A200020626961733A200050492B
:1025200044204175746F74756E65206661696C65D1
:10253000642120426164206578747275646572203C
:102540006E756D6265720A00504944204175746F62
:1025500074756E652073746172740A004D36303084
:102560003A20546F6F20636F6C6400486F74656E1F
:102570006420746F6F20636F6C640A00496E73652A
:1025800072742066696C616D656E7420616E642082
:10259000707265737320627574746F6E0A00507286
:1025A00065737320627574746F6E20746F20686534
:1025B0006174206E6F7A7A6C650A00496E73657279
:1025C000742066696C616D656E7420616E64207044
:1025D0007265737320627574746F6E20286F722039
:1025E0004D313038290A00496E736572742066696E
:1025F0006C616D656E7420616E64207072657373BA
:1026000020627574746F6E20286F72204D313038DF
:10261000290A007C3C3E5E2B3D3F2F5B5D3B2C2A14
:10262000225C0043616E6E6F7420656E746572206B
:102630007375626469723A2000022E2E004D616942
:102640006E004D37303220542564004D3630302036
:10265000423020542564004D373032203B25640041
:102660004D37303120542564004368616E67652022
:1026700066696C616D656E74005072656865617441
:1026800020414253005072656865617420504C418E
:10269000004368616E67652066696C616D656E7484
:1026A000005052494E542050415553454400554E18
:1026B0004C4F41442046494C414D454E54004C4FEF
:1026C00041442046494C414D454E54005075726777
:1026D00065206D6F726500436F6E74696E7565007D
:1026E000524553554D45204F5054494F4E533A0093
:1026F00020204E6F7A7A6C653A20006368616E67BD
:1027000065006F66207468652066696C616D656E32
:1027100074005761697420666F72207374617274FB
:102720000020204E6F7A7A6C653A2000200066699E
:102730006C616D656E7420756E6C6F6164005761BD
:10274000697420666F720020204E6F7A7A6C653A49
:1027500020002000506C6561736520776169742EDC
:102760002E2E0048656174696E67206E6F7A7A6CF0
:10277000650020204E6F7A7A6C653A200020006850
:10278000656174206E6F7A7A6C652E005072657385
:102790007320627574746F6E20746F0020204E6F0A
:1027A0007A7A6C653A2000746F20636F6E74696E7C
:1027B00075652E2E2E00616E642070726573732015
:1027C000627574746F6E00496E7365727420666909
:1027D0006C616D656E740020204E6F7A7A6C653A7C
:1027E0002000200066696C616D656E74206C6F61FD
:1027F00064005761697420666F7200000021002434
:102800000027002A002D00300033000101000004E1
:102810000107010A0100002200250028002B002EDC
:10282000003100340002010000050108010B010025
:102830000020002300260029002C002F0032000079
:10284000010000030106010901050505050705084A
:10285000080808020202020A0A0808040404040123
:102860000101010101010103030303030303030445
:102870000707070C0C0C0C0C0C0C0C0202020206D5
:10288000060606060606060B0B0B0B0B0B0B0B01C5
:102890000210202008081020401020408002010271
:1028A0000108040201010204081020408080402039
:1028B0001008040201800402018040201008040274
:1028C00001080402010102040810204080010204F2
:1028D000081020408000000A0B02090C0D0E0807AA
:1028E00003040100000000000000000000000000E0
:1028F00000000000000000000000000000000000D8
:102900000012111000000000000000000000000094
:1029100000000000000000000000004D3234004DB7
:10292000323320257300556E6B6E6F776E20636FA8
:102930006D6D616E643A202200486F74656E64208C
:10294000746F6F20636F6C640A0000060900FE0755
:1029500001920321207FFF07FF07FF000000060010
:10296000000107070602008080808080008003024B
:1029700002060105A0A00507070600005050F85008
:10298000F850500507070600002078A07028F020B6
:10299000050707060000C0C8102040981805070763
:1029A0000600006090A040A890680203030601049E
:1029B000C04080030707060100204080808040203F
:1029C0000307070601008040202020408005050500
:1029D00006000120A870A82005050506000120209A
:1029E000F820200203030602FFC040800501010613
:1029F0000003F8020202060200C0C0050505060039
:102A000001081020408005070706000070888888AC
:102A100088887003070706010040C040404040E03E
:102A2000050707060000708808708080F805070712
:102A3000060000F81020100808F00507070600003F
:102A400010305090F81010050707060000F880F0CD
:102A500008088870050707060000708080F08888E5
:102A600070050707060000F8081020202020050741
:102A700007060000708888708888700507070600C0
:102A80000070888878080870020505060200C0C03A
:102A900000C0C00206060602FFC0C000C04080049D
:102AA00007070600001020408040201005030306A1
:102AB0000002F800F80407070601008040201020FB
:102AC00040800507070600007088081020002005D8
:102AD000070706000070880868A8A87005070706A1
:102AE0000000708888F8888888050707060000F0CD
:102AF0008888F08888F005070706000070888080C5
:102B0000808870050707060000F08888888888F0AC
:102B1000050707060000F88080F08080F8050707A9
:102B2000060000F88080F08080800507070600001E
:102B3000708880B888887005070706000088888834
:102B4000F8888888010707060200808080808080DE
:102B50008005070706000038101010109060050768
:102B6000070600008890A0C0A0908805070706000F
:102B700000808080808080F805070706000088D8E4
:102B8000A8888888880507070600008888C8A8984C
:102B9000888805070706000070888888888870057F
:102BA0000707060000F08888F08080800507070688
:102BB000000070888888A89068050707060000F064
:102BC0008888F0A09088050707060000788080704C
:102BD0000808F0050707060000F820202020202024
:102BE0000507070600008888888888887005070719
:102BF000060000888888888850200507070600009E
:102C00008888888888A850050707060000888850AB
:102C100020508888050707060000888888502020F3
:102C200020050707060000F80810204080F8030779
:102C300007060100E08080808080E0050505060031
:102C4000018040201008030707060100E020202033
:102C50002020E0050303060004205088050101063A
:102C60000000F80202020602058040050505060084
:102C70000070087888780507070600008080B0C8D3
:102C80008888F005050506000070808088700507BB
:102C9000070600000808689888887805050506007A
:102CA000007088F880700507070600003048E04093
:102CB0004040400506060600FF70888878087005C9
:102CC00007070600008080B0C888888801070706CB
:102CD0000200800080808080800308080601FF20B9
:102CE0000020202020A040040707060000808090DC
:102CF000A0C0A090030707060100C040404040402C
:102D0000E0050505060000D0A8A8A8A80505050649
:102D10000000B0C88888880505050600007088880E
:102D200088700506060600FFF08888F0808005069A
:102D3000060600FF78888878080805050506000063
:102D4000B0C880808005050506000070807008F01E
:102D50000407070600004040E040404030050505FC
:102D600006000088888898680505050600008888A0
:102D70008850200505050600008888A8A85005058C
:102D80000506000088502050880506060600FF88CA
:102D90008888780870050505060000F8102040F8BE
:102DA000030707060100204040804040200107073C
:102DB0000602008080808080808003070706010073
:102DC00080404020404080050202060002689000DA
:102DD00000000600000256652D6A65726B0056659C
:102DE0002D6A65726B0056652D6A65726B00567AA6
:102DF0002D6A65726B00567A2D6A65726B00567982
:102E00002D6A65726B0056792D6A65726B00567972
:102E10002D6A65726B0056782D6A65726B00567864
:102E20002D6A65726B0056782D6A65726B004D6F66
:102E300074696F6E004573746570732F6D6D004516
:102E400073746570732F6D6D005A73746570732F92
:102E50006D6D005A73746570732F6D6D00597374C6
:102E60006570732F6D6D005973746570732F6D6D80
:102E7000005873746570732F6D6D005873746570AE
:102E8000732F6D6D004D6F74696F6E0053746570B4
:102E9000732F6D6D004A65726B00416363656C65ED
:102EA000726174696F6E0056656C6F636974790046
:102EB000436F6E74726F6C004C6F6164206D6D00B7
:102EC0004C6F6164206D6D004C6F6164206D6D000E
:102ED000556E6C6F6164206D6D00556E6C6F616432
:102EE000206D6D00556E6C6F6164206D6D004669DC
:102EF0006C2E204469612E0046696C2E2044696165
:102F00002E004F6666004F6E20004520696E206DD2
:102F10006D3300436F6E74726F6C003344205072D7
:102F2000696E7465722052656164792E0050726911
:102F30006E74696E672E2E2E005072696E7420704A
:102F40006175736564004D3130362050256920531A
:102F50002569004D31303920532569004D31393014
:102F600020532569004D3432302053300A4732381F
:102F7000205230205820590053746F7020707269AD
:102F80006E7400526573756D65207072696E7400A1
:102F9000506F7765722D4C6F7373205265636F7637
:102FA000657279005072696E742061626F72746527
:102FB00064005072696E742066726F6D2053440015
:102FC00053746F70207072696E7400526573756D02
:102FD00065207072696E74004E6F205344206361E7
:102FE0007264005061757365207072696E7400437D
:102FF0006F6E74726F6C0050726570617265005410
:10300000756E6500496E666F2073637265656E004C
:103010004368616E67652066696C616D656E7400FA
:103020004368616E67652066696C616D656E7400EA
:103030004D36303020423000466C6F7700466C6F62
:103040007700466C6F770046616E2073706565642B
:103050000046616E2073706565640046616E207382
:1030600070656564004265640042656400426564A1
:10307000004E6F7A7A6C65004E6F7A7A6C65004EFE
:103080006F7A7A6C6500537065656400537065658E
:1030900064005370656564004D61696E005654723A
:1030A0006176206D696E005654726176206D696E8E
:1030B000005654726176206D696E00566D696E001F
:1030C000566D696E00566D696E00566D61782045CB
:1030D00000566D6178204500566D61782045005698
:1030E0006D6178205A00566D6178205A00566D61E6
:1030F00078205A00566D6178205900566D6178200D
:103100005900566D6178205900566D61782058003D
:10311000566D6178205800566D61782058004D6FCB
:1031200074696F6E00416D6178204500416D617872
:10313000204500416D6178205A00416D6178205A28
:1031400000416D6178205900416D6178205900413E
:103150006D6178205800416D6178205800412D74D0
:10316000726176656C00412D74726176656C004108
:103170002D7265747261637400412D7265747261A1
:10318000637400416363656C00416363656C004D6B
:103190006F74696F6E0048617264636F6465642068
:1031A00044656661756C742053657474696E6773E9
:1031B000204C6F616465640A002C0100002C010042
:1031C000006400000090010000000096430000969B
:1031D000430000A0400000C8410000A0420000A041
:1031E00042000048440000B04220286D6D290020B4
:1031F000204D36303320002055004C0046696C616C
:103200006D656E74206C6F61642F756E6C6F616498
:10321000206C656E677468733A0A00204400204988
:103220000020204D33303120500050494420736538
:103230007474696E67733A0A0020460020420020C9
:10324000480020204D3134352053004D61746572A3
:1032500069616C2068656174757020706172616D60
:1032600065746572733A0A00205A002059002020C4
:103270004D323036205800486F6D65206F6666739A
:1032800065743A0A00204500205A00205900205851
:103290000020540020530020204D323035205100B2
:1032A00020453C6D61785F655F6A65726B3E00200A
:1032B000583C6D61785F785F6A65726B3E20593C5F
:1032C0006D61785F795F6A65726B3E205A3C6D6113
:1032D000785F7A5F6A65726B3E00416476616E6307
:1032E00065643A20513C6D696E5F7365676D656E0C
:1032F000745F74696D655F75733E20533C6D696ED4
:103300005F66656564726174653E20543C6D696EEC
:103310005F74726176656C5F666565647261746521
:103320003E0020540020520020204D3230342050E6
:1033300000416363656C65726174696F6E20287506
:103340006E6974732F7332293A20503C7072696E23
:10335000745F616363656C3E20523C726574726198
:1033600063745F616363656C3E20543C7472617684
:10337000656C5F616363656C3E0A00204500205AFE
:103380000020590020204D3230312058004D617806
:10339000696D756D20416363656C65726174696FF9
:1033A0006E2028756E6974732F7332293A0A0020D3
:1033B0004500205A0020590020204D32303320583B
:1033C000004D6178696D756D206665656472617424
:1033D00065732028756E6974732F73293A0A00206B
:1033E0004500205A0020590020204D393220580035
:1033F00053746570732070657220756E69743A0A33
:103400000020204D3230302044300A0020204D3240
:1034100030302044002044697361626C65640A00A6
:1034200046696C616D656E742073657474696E674E
:10343000733A0020204D3134392043203B20556E13
:1034400069747320696E2043656C736975730A0033
:103450002020473231202020203B0053442063614C
:103460007264206F6B0A006F70656E526F6F74200C
:103470006661696C65640A00766F6C756D652E69AE
:103480006E6974206661696C65640A005344206942
:103490006E6974206661696C0A0057726974696E9E
:1034A0006720746F2066696C653A20006F70656EE6
:1034B000206661696C65642C2046696C653A200061
:1034C0006F70656E206661696C65642C2046696C5E
:1034D000653A200046696C652073656C65637465A8
:1034E000640A002053697A653A200046696C6520B9
:1034F0006F70656E65643A20002066696C653A20DD
:1035000000646F696E67006672657368004E6F775E
:103510002000454E4420535542524F5554494E4584
:103520000A002220706F73002220706172656E7431
:103530003A2200535542524F5554494E452043417B
:103540004C4C207461726765743A22004B494C4CB4
:1035500045442E2000747279696E6720746F206371
:10356000616C6C207375622D67636F64652066699A
:103570006C6573207769746820746F6F206D616E5D
:1035800079206C6576656C732E204D4158206C65F2
:1035900076656C2069733A004572726F722077729B
:1035A0006974696E6720746F20454550524F4D21F4
:1035B0000A00545249474745524544006F70656EB2
:1035C000003A200066696C616D656E74007A5F6D0B
:1035D000696E00795F6D696E00785F6D696E00528B
:1035E00065706F7274696E6720656E6473746F7056
:1035F000207374617475730A00526573656E643A62
:10360000200016F588F411241FBECFEFD1E2DEBFF3
:10361000CDBF00E00CBF13E0A0E0B2E0E0E3FFE0CC
:1036200002E00BBF02C007900D92A034B107D9F79A
:103630002BE1A0E4B3E001C01D92A637B207E1F789
:103640001BE1C2E0DBE100E006C021970109802F09
:10365000FE010F94F506C130D10780E00807A9F7F5
:103660000E94DFEC0D9487070C9400002F923F928C
:103670004F925F926F927F928F929F92AF92BF9282
:10368000CF92DF92EF92FF920F931F93CF93DF932E
:10369000CDB7DEB7CF55D1090FB6F894DEBF0FBE58
:1036A000CDBF21E02093F8098091E31A8D3409F40D
:1036B00063C6843511F40C945230873411F00C94A5
:1036C00096302090E11A3090E21A34E0231631044B
:1036D00009F44FC54CF437FC4BC680912D0252E0E3
:1036E00025163104A4F52EC08AE52816310409F404
:1036F000CBC55CF4ABE12A16310409F479C5BCE111
:103700002B16310409F4A4C533C6EBE52E1631049B
:1037100009F4BEC5FCE52F16310409F029C67CE585
:10372000272E72E0372EE8E0EE2EEAE0FE2EEAECDD
:10373000F9E0FDA7ECA7FAE3CF2EF6E1DF2E00E0DB
:1037400010E0E5C581110C949D300C9498308823CD
:1037500011F40C9498300E944F7782E50E94F2C0D9
:10376000882309F436C10E9476C04B015C0120E039
:1037700030E0A9010E9460FD882309F456C1209120
:10378000CA093091CB094091CC095091CD092CA7A1
:103790003DA74EA75FA78091CE099091CF09A09138
:1037A000D009B091D10988AB99ABAAABBBAB209142
:1037B000DA093091DB094091DC095091DD092CAF29
:1037C0003DAF4EAF5FAF8091DE099091DF09A091D0
:1037D000E009B091E10988AF99AFAAAFBBAF6CA582
:1037E0007DA58EA59FA50E9460FD81110DC028AD0D
:1037F00039AD4AAD5BAD68A979A98AA99BA90E9498
:1038000060FD882309F411C111E092E0291631040A
:1038100009F010E020E030E0A901C501B4010E94E8
:1038200060FD881F8827881F181759F020E030E0B6
:1038300040E85FEB28962CAF3DAF4EAF5FAF2897C7
:103840000AC080E090E0A0E8BFE328968CAF9DAF6F
:10385000AEAFBFAF28972CA53DA54EA55FA56CAD1B
:103860007DAD8EAD9FAD0F94F90324966CAF7DAF07
:103870008EAF9FAF249728A939A94AA95BA968AD43
:1038800079AD8AAD9BAD0F94F9036B017C01249651
:103890002CAD3DAD4EAD5FAD2497CA01B9010E947C
:1038A000C5FD2B013C01A7019601C701B6010E948D
:1038B000C5FD9B01AC01C301B2010F94FA030F9443
:1038C00066066CAB7DAB8EAB9FAB20E030E040E09A
:1038D0005FE30E94C5FD2B013C01A5019401C501D8
:1038E000B4010E94C5FD4B015C01A3019201C3011B
:1038F000B2010E94C5FD9B01AC01C501B4010F944A
:10390000F9030F94660628962CAD3DAD4EAD5FAD24
:1039100028970E94C5FD4B015C01C701B601905874
:103920002CA93DA94EA95FA90F94D604A501940125
:103930000E94C5FD6B017C012CAD3DAD4EAD5FAD70
:103940006CA57DA58EA59FA50F94FA0320E030E01D
:1039500040E05FE30E94C5FD9B01AC01C701B601D9
:103960000F94FA032CA53DA54EA55FA50F94F9036E
:103970006B017C0128AD39AD4AAD5BAD68A979A971
:103980008AA99BA90F94FA0320E030E040E05FE3AE
:103990000E94C5FD2B013C012CA93DA94EA95FA9A0
:1039A00024966CAD7DAD8EAD9FAD24970F94D6045B
:1039B000A50194010E94C5FD9B01AC01C301B201A8
:1039C0000F94FA0328A939A94AA95BA90F94F9030E
:1039D00014C089E40E94F2C0882329F00E9476C0B6
:1039E0006B017C0103C0C12CD12C76018AE40E94BA
:1039F000F2C08823E9F00E9476C06CAF7DAF8EAF35
:103A00009FAF20E030E0A901C701B6010E9460FD30
:103A100081111BC020E030E0A9016CAD7DAD8EAD01
:103A20009FAD0E9460FD811110C0ECEAF3E18DC3EF
:103A300020E030E0A901C701B6010E9460FD8823A3
:103A4000A1F31CAE1DAE1EAE1FAEA70196015058CD
:103A50002CA73DA74EA75FA78CAD9DADAEADBFAD6A
:103A6000B05888AB99ABAAABBBABCA01B9010E94F5
:103A7000C5FD4B015C0128A939A94AA95BA9CA0166
:103A8000B9010E94C5FD9B01AC01C501B4010F94B1
:103A9000FA030F94660664966CAF7DAF8EAF9FAF4E
:103AA00064972091CA093091CB094091CC0950917B
:103AB000CD0928AF39AF4AAF5BAFA701960168AD1A
:103AC00079AD8AAD9BAD0F94FA0328966CAF7DAFAC
:103AD0008EAF9FAF28978091CE099091CF09A0918A
:103AE000D009B091D10924968CAF9DAFAEAFBFAFD6
:103AF00024972CAD3DAD4EAD5FADBC01CD010F9413
:103B0000FA0368966CAF7DAF8EAF9FAF6897209138
:103B1000DA093091DB094091DC095091DD092C96DE
:103B20002CAF3DAF4EAF5FAF2C9728962CAD3DAD7F
:103B30004EAD5FAD28972C966CAD7DAD8EAD9FAD33
:103B40002C970F94F9036B017C018091DE09909111
:103B5000DF09A091E009B091E10960968CAF9DAFBB
:103B6000AEAFBFAF609768962CAD3DAD4EAD5FADCB
:103B70006897BC01CD010F94F9034B015C012091C2
:103B8000D2093091D3094091D4095091D5096C964E
:103B90002CAF3DAF4EAF5FAF6C976091E209709173
:103BA000E3098091E4099091E5090F94F9036CAB66
:103BB0007DAB8EAB9FABA70196016CA57DA58EA5B5
:103BC0009FA50E94C5FD2B013C01A501940168A998
:103BD00079A98AA99BA90E94C5FD9B01AC01C301DB
:103BE000B2010F94FA032B013C01A50194016CA5CD
:103BF0007DA58EA59FA50E94C5FD4B015C01A70177
:103C0000960168A979A98AA99BA90E94C5FD9B0173
:103C1000AC01C501B4010F94F903A30192010F9403
:103C20006D046B017C0120E030E0A9010E9460FD81
:103C300087FF0AC02BED3FE049EC50E4C701B60115
:103C40000F94FA036B017C0132E02316310451F426
:103C50002BED3FE049EC50E4C701B6010F94F903A6
:103C60006B017C0120E030E0A901C701B6010E9490
:103C700060FD811126C02C962CAD3DAD4EAD5FADE3
:103C80002C9768AD79AD8AAD9BAD0E9460FD811126
:103C900018C060962CAD3DAD4EAD5FAD60972496DB
:103CA0006CAD7DAD8EAD9FAD24970E9460FD8111FE
:103CB00008C01BEDC12E1FE0D12E19ECE12E10E43F
:103CC000F12EA701960164966CAD7DAD8EAD9FADD2
:103CD00064970E94C5FD4B015C0120E030E0A90122
:103CE0006CA97DA98EA99FA90E9460FD8823D9F0A7
:103CF000A5019401C501B4010E94C5FD4B015C0101
:103D00002CA93DA94EA95FA9CA01B9010E94C5FD10
:103D10009B01AC01C501B4010F94FA030F94660630
:103D20004B015C010DC020E030E0A901C501B401E8
:103D30000F94200687FF04C0B7FAB094B7F8B09488
:103D40002FE632E143E85AE3C501B4010E9460FD69
:103D500087FF02C00C949830C501B4010F946F0521
:103D60000F94430522967FAF6EAF2297672B31F4F5
:103D700081E090E022969FAF8EAF22974090D609C7
:103D80005090D7096090D8097090D9092296AEADAD
:103D9000BFAD2297BD0180E090E00E9464FD4B0121
:103DA0005C019B01AC01C701B6010F94D60468AF5A
:103DB00079AF8AAF9BAFA50194016CA97DA98EA9AB
:103DC0009FA90F94D60464966CAF7DAF8EAF9FAF62
:103DD0006497A30192016091E6097091E7098091CF
:103DE000E8099091E9090F94F903A50194010F9452
:103DF000D604A0966CAF7DAF8EAF9FAFA09728ADD5
:103E000039AD4AAD5BADCA01B9010E94C5FD20E0E4
:103E100030E040E05FE30E94C5FD9B01AC0160E043
:103E200070E080E89FE30F94F9032C966CAF7DAFB0
:103E30008EAF9FAF2C976C962CAD3DAD4EAD5FAD68
:103E40006C9729873A874B875C874D865E866F869D
:103E5000788A60915A0270915B02072E000C880BE1
:103E6000990B0E9466FD2091060230910702409155
:103E70000802509109020E94C5FD2AE037ED43E295
:103E80005CE30E94C5FD68A779A78AA79BA70E944B
:103E900089EC9B01AC0128533F4F4F4F5F4F609619
:103EA0002CAF3DAF4EAF5FAF60974CA45DA46EA446
:103EB0007FA422242394312C39E13CAB22964EADD1
:103EC0005FAD22974215530509F41BC10E94E36EB2
:103ED0000E9489ECDC01CB0160962CAD3DAD4EAD6E
:103EE0005FAD6097821B930BA40BB50BB7FD11C0A0
:103EF0000E9489EC9B01AC0128533F4F4F4F5F4F0D
:103F000060962CAF3DAF4EAF5FAF609780E00E94F0
:103F1000CB363CA931503CAB332309F441C028A92E
:103F200039A94AA95BA92C966CAD7DAD8EAD9FAD2C
:103F30002C970E94C5FD6B017C019201A30168AD25
:103F400079AD8AAD9BAD0E94C5FDA70196010F9486
:103F5000FA037B018C019201A3012C966CAD7DAD1F
:103F60008EAD9FAD2C970E94C5FD4B015C0128A929
:103F700039A94AA95BA968AD79AD8AAD9BAD0E940C
:103F8000C5FD9B01AC01C501B4010F94F9032B01E0
:103F90003C01C701D80188AB99ABAAABBBAB4DC004
:103FA000B10180E090E00E9464FD28AD39AD4AADDA
:103FB0005BAD0E94C5FD4B015C010F94D3046B0106
:103FC0007C01C501B4010F945C064B015C01A701A3
:103FD00096016CA57DA58EA59FA50E94C5FD2B0110
:103FE0003C012CAD3DAD4EAD5FADC501B4010E94AD
:103FF000C5FDA30192010F94FA032B013C01A50119
:1040000094016CA57DA58EA59FA50E94C5FD4B01C1
:104010005C012CAD3DAD4EAD5FADC701B6010E9458
:10402000C5FD9B01AC01C501B4010F94F90368AB58
:1040300079AB8AAB9BAB49E14CAB9201A3012896CB
:104040006CAD7DAD8EAD9FAD28970F94FA0369835B
:104050007A838B839C8328A939A94AA95BA968968E
:104060006CAD7DAD8EAD9FAD68970F94FA036D83F7
:104070007E838F83988764962CAD3DAD4EAD5FAD4A
:10408000649769857A858B859C850F94FA03698787
:104090007A878B879C87A0962CAD3DAD4EAD5FADEA
:1040A000A0976D857E858F8598890F94FA036D871B
:1040B0007E878F87988B80912C02882321F0CE01F8
:1040C00001960E940932E090611718A219A21AA263
:1040D0001BA2CE0180966C018E01085D1F4F9E01D0
:1040E000235F3F4FAE01475F5F4FBE016B5F7F4F66
:1040F0004F970E948849882321F09FEF291A390A97
:10410000DDCEE09061171CA21DA21EA21FA2DE013F
:1041100094966D018E01085D1F4F26EE39E042EE48
:1041200059E06EED79E08AED99E00E94884980E1DE
:10413000EAEDF9E0AAECB9E001900D928A95E1F779
:104140000C9498300E9418C1F80184918F010F5F80
:104150001F4F8111F7CFEFE4F3E084918F010F5FE0
:104160001F4F882311F40C9498300E9418C1F80155
:10417000F4CF80E50E94F2C0882329F00E9436C067
:104180006B017C0103C0C12CD12C760183E50E9418
:10419000F2C0882361F00E9476C020E030E04AE758
:1041A00054E40E94C5FD0F9443056B017C010E94FD
:1041B0008CE38091FF0C811105C060E085E693E0FF
:1041C0000E9426BC0E9489ECC60ED71EE81EF91E6E
:1041D0000E9489ECDC01CB018C199D09AE09BF0955
:1041E000B7FD02C00C94983080E00E94CB36F0CF2F
:1041F0000E945B5781110C94983080E090E0A0E021
:10420000B0E489839A83AB83BC8380E090E0AFE520
:10421000B3E48D839E83AF83B88780E090E0A0EA0B
:10422000B1E489879A87AB87BC8780E50E94F2C09A
:10423000882319F00E9446C001C060E068A3BE0157
:104240006F5F7F4FCE0180960E94D1E60C9498302C
:10425000809154038770873011F00C94A2308FE462
:104260000E94F2C0882341F00E9467C0882311F4A5
:104270000C94A2300C9498308FE40E94A9C0811154
:104280000C9498300C94A230109244030C94983003
:10429000209344030C9498300E9476C02B013C017B
:1042A000133049F0F60120813181428153810F940E
:1042B000F9032B013C01ACA5BDA52D913D914D917C
:1042C0005C91C301B2010F94F9034B015C012DEB2A
:1042D00037E346E855EB0F94200687FD20C02DEB11
:1042E00037E346E855E3C501B4010E9460FD1816A6
:1042F000B4F01F5FB4E0EB0EF11CECA5FDA5349605
:10430000FDA7ECA7F4E0CF0ED11C143039F1D10198
:104310008D911D010E94F2C0882359F3BDCF133047
:1043200051F44092D6095092D7096092D809709200
:10433000D90901E0DECFA5019401F7016081718107
:10434000828193810F94FA03D7016D937D938D93AE
:104350009C931397812F0E94E078CBCF002321F00C
:1043600086ED99E00E94F8560E94CA730C9498302A
:104370000E9432B10C9498308091E11A9091E21A27
:104380008337910509F4BFC10CF0C6C08B34910589
:1043900009F4C8C40CF06BC08831910509F487C2D8
:1043A000CCF58231910509F440C6DCF497FF02C0D8
:1043B0000C944F30823091050CF4A8C1419711F054
:1043C0000C944F3060E081E893E00E9426BC5F9837
:1043D0008A988091080181708093060112980C944C
:1043E00098308531910509F447C23CF4449711F0A7
:1043F0000C944F30E9E9F3E001C28631910509F4EC
:104400003FC2479711F00C944F30E091DF1AF091C2
:10441000E01A40C28D31910511F40C949830C4F427
:104420008A31910509F4C3C20CF4BBC28B319105EA
:1044300009F4CBC24C9711F00C944F3040E060E08F
:104440008091DF1A9091E01A0E94A1DB0C949830C1
:104450008F31910509F47CC30CF44FC38032910570
:1044600009F460C28A9709F429C40C944F30893644
:10447000910509F42DC544F58335910509F4D1C59D
:104480009CF48D34910509F455C40CF44FC4813566
:10449000910509F4B1C58235910511F00C944F30A6
:1044A000109243030C9498308535910509F4F2C5B8
:1044B0000CF4BBC58C35910509F407C68836910507
:1044C00009F43CC40C944F308E36910509F461C454
:1044D0009CF48B36910509F47DC50CF45DC58C36D2
:1044E000910509F4BCC48D36910511F00C944F3040
:1044F0000E9462790C9498308037910509F4B3C416
:104500000CF45AC48137910509F4B5C4823791057A
:1045100009F463C60C944F30823E910511F40C945B
:10452000132E0CF06DC08E3B910509F431C55CF57E
:104530008837910509F447C764F48637910509F473
:10454000F3C60CF03DC78537910509F4DEC60C941F
:104550004F308C38910509F4FDC45CF4893791051E
:1045600011F00C944F3010925303109252030C949C
:1045700098308139910509F42BC78B39910509F4DD
:10458000C2C40C944F308D3C910511F40C94602BF7
:10459000B4F4893C910509F4E2C734F4883C9105F0
:1045A00009F48DC70C944F308B3C910509F4F7C783
:1045B0008C3C910511F40C94EB2A0C944F30833D04
:1045C000910509F49CC084F48E3C910511F00C9483
:1045D0004F30ECE5CE2EE2E0DE2EF5E3EF2EF8E0F4
:1045E000FF2E10E00C94D32B8C3D910511F40C940C
:1045F000972D8D3D910511F40C94A42D0C944F3002
:10460000843F21E0920711F40C94752F0CF040C008
:104610008F3241E0940711F40C94592FECF48C3252
:10462000A1E09A0711F40C943C2E4CF4883191408F
:1046300011F00C944F300E94E4710C9498308D323C
:10464000F1E09F0711F40C94652E8E32914011F425
:104650000C94052F0C944F30803931E0930711F4FE
:104660000C94722F4CF48336914011F00C944F301F
:10467000ECEAF3E10C945F2F8A39A1E09A0709F480
:10468000F6C38C3A914011F40C94E62B0C944F3005
:104690008835E2E09E0711F40C94AE2FB4F4863F07
:1046A00021E0920711F40C947B2F14F40C94782FD2
:1046B000873F41E0940711F40C947E2F883F91408E
:1046C00011F40C948A2F0C944F308B38A3E09A0786
:1046D00011F40C9498303CF48B35924011F40C9406
:1046E000B12F0C944F30803AF3E09F0709F423C2B6
:1046F000873E934011F40C943A300C944F30E6E42A
:10470000F3E10C94B82CECE4F5E0A4C5A090DF1A1A
:10471000B090E01A80E50E94F2C0882359F00E9410
:1047200036C06B017C0111E0672B682B692B31F4DB
:1047300010E004C010E0C12CD12C760183E50E946A
:10474000F2C0882311F40C9453310E9476C020E00B
:1047500030E04AE754E40E94C5FD0F9443056B0125
:104760007C0111110BC0672B682B692B39F4A11444
:10477000B10421F0D5018C91811102C010E001C07B
:1047800011E00E948CE3112329F061E0C5010E9431
:1047900060BC05C060E08EE693E00E9426BC83E02A
:1047A0008093F80981E080932816C114D104E104B4
:1047B000F104B1F00E9489ECC60ED71EE81EF91E66
:1047C0000E9489ECDC01CB018C199D09AE09BF095F
:1047D000B7FF0EC08091281681110C94583108C083
:1047E00080912816882321F080E00E94CB36F8CFF4
:1047F0000E9482C9109228160C94983084918F01DF
:104800000F5F1F4F882321F00E9418C1F801F6CFD7
:104810001092AB108FE39EE00E9464A48BE1EFE363
:10482000FEE0DE01159601900D928A95E1F78091E8
:104830003D0E90913E0E9C838B838AE692E09A8394
:10484000898340E050E0BE016F5F7F4F80E090E0E1
:104850000E941A47CE0101960E947C33EAE8F3E0F9
:1048600084918F010F5F1F4F882311F40C949830AF
:104870000E9418C1F801F4CF0E94E9D90C94983035
:1048800010920F0E1092100E0C949830803209F492
:104890001082319680818111F9CF40E061E08091F2
:1048A000DF1A9091E01A0E94A1DB0C94983083E506
:1048B0000E94F2C0882381F00E9446C0AB01BC0177
:1048C0004093A7105093A8106093A9107093AA105A
:1048D00087ED9FE00E941DA28091100E882319F0A1
:1048E00081E080930F0E84E50E94F2C0882309F4D2
:1048F00054C00E9446C06B017C010E94B36CC09200
:104900006816D0926916E0926A16F0926B16CD285E
:10491000CE28CF2811F40C94983081E080939F1812
:104920000C94983080910F0E81110E948CE380913D
:10493000100E882311F40C94983080E50E94F2C088
:10494000882309F4F4C00E9467C0182F482F61E043
:104950008091DF1A9091E01A0E94A1DB83E50E940A
:10496000F2C0882381F00E9446C0AB01BC01409395
:10497000A7105093A8106093A9107093AA1087ED08
:104980009FE00E941DA28091100E882319F081E003
:1049900080930F0E11110C9498300E94CE6C0C94E1
:1049A000983010920F0E0E94F06C0C949830809109
:1049B000100E882311F40C94983083E50E94F2C005
:1049C00081110C945C310C94983083E40E94A9C04E
:1049D000882309F450C0E7EDF3E084918F010F5F65
:1049E0001F4F882321F00E9418C1F801F6CF809153
:1049F000DA0F811103C0EAEAF3E012C0BE016F5F73
:104A00007F4F87ED9FE00E942CA38E010F5F1F4F09
:104A1000F80181918F01882349F10E9418C1F8CFD4
:104A200084918F010F5F1F4F882301F10E9418C1ED
:104A3000F801F6CF5FE2C52E54E0D52EE12CF12C23
:104A400020E08091011690E00E2C02C0959587958C
:104A50000A94E2F780FDE0C13FEFE31AF30A42E077
:104A6000C40ED11C55E0E516F10459F78AE00E9406
:104A700018C10C9498308091100E882339F08091E1
:104A80000F0E882319F0E4EBF3E003C0E6ECF3E04B
:104A900028C084918F010F5F1F4F882321F00E944F
:104AA00018C1F801F6CF6091A7107091A8108091FD
:104AB000A9109091AA104AE00E941FC18FE20E94A3
:104AC00018C16091A3107091A4108091A5109091CD
:104AD000A6104AE00E941FC18AE00E9418C10C94EF
:104AE000983084918F010F5F1F4F882311F40C942D
:104AF00098300E9418C1F801F4CF8091100E8823DD
:104B000011F40C94983087ED9FE00E94D4E087ED7B
:104B10009FE00E9407A310920E0E10920D0E80913E
:104B2000DF1A9091E01A0E94E0480C94983080E5DA
:104B30000E94A9C00ACF8091DF1A9091E01A21E06B
:104B400020930E0E40E060E00E94A1DB0C949830B0
:104B50000E947F6C7B018C0120E831E541E050E050
:104B60000F949C03C9016DE671E00F94CE064B01D2
:104B70005C01C801B70120E13EE040E050E00F9445
:104B80009C03CA01B90128E130E040E050E00F94F5
:104B90009C03762E672EC62ED72E6CE3262E312C44
:104BA000412C512CC801B701A20191010F949C0323
:104BB000F62EE72ECA01B901A20191010F949C03C0
:104BC000CB018E010F5F1F4F8114910499F0EF927A
:104BD000FF927F936F936F927F92BF92AF929F925B
:104BE0008F928EE094E09F938F931F930F930E9478
:104BF000FAFC13C0A114B104B1F0EF92FF927F93BD
:104C00006F936F927F92BF92AF928EEF93E09F93DC
:104C10008F931F930F930E94FAFC0FB6F894DEBF98
:104C20000FBECDBF30C0CD2879F0EF92FF927F93B9
:104C30006F936F927F9282EF93E09F938F931F9376
:104C40000F930E94FAFCE9CF892B69F0EF92FF9253
:104C50007F936F938AEE93E09F938F931F930F93AD
:104C60000E94FAFCDACFEF92FF9286EE93E09F93D8
:104C70008F931F930F930E94FAFC0F900F900F9049
:104C80000F900F900F9060E0C8010E9460BCE6E4B6
:104C9000F3E184917F01BFEFEB1AFB0A882321F037
:104CA0000E9418C1F701F5CFB80182E294E00E949A
:104CB000F38D8AE00E9418C10C94983083E50E941D
:104CC000F2C0882311F40C9498300E9456C0E82E4C
:104CD00080E50E94F2C0882339F00E9456C0182F48
:104CE00087FF03C00C9498301DE089E40E94F2C055
:104CF000882341F00E9467C081110C94D331E5EC08
:104D0000F6E00BC089E40E94A9C0F6CF319626E0F8
:104D1000E23FF20711F40C94D33184911813F6CFCB
:104D20000C94A8310E94CE6C0C9498300E94F06CC8
:104D30000C9498300E94056D0C94983088E690E0B1
:104D40000E94207981110C9498308091011683FF84
:104D500002C00C94983083E50E94F2C08823A9F029
:104D60000E9476C00F943E05CB010E94CBBB0E94EF
:104D700076C020E030E044EB52E40E9460FD18165B
:104D800024F00E94056D0E9482C90E940E8E0C9430
:104D900098308EE40E94F2C0882311F40C9498306D
:104DA0000E9446C06093F90C7093FA0C8093FB0C40
:104DB0009093FC0C0C94983083E50E94A9C0882342
:104DC00059F083E50E94F2C0882319F00E9456C072
:104DD00001C080E080930116E6E4F3E184918F0145
:104DE0000F5F1F4F811103C0EDE3F4E004C00E9488
:104DF00018C1F801F3CF84918F010F5F1F4F8823F3
:104E000021F00E9418C1F801F6CF8091011681119E
:104E100011CEE9E3F4E018C0BB24B394B20E222310
:104E200019F08CE20E9418C1F60185919491FC0161
:104E300084918F010F5F1F4F882321F00E9418C1BA
:104E4000F801F6CF2B2D08CE84918F010F5F1F4FF5
:104E5000882309F40BCE0E9418C1F801F5CF1092F7
:104E600056020C94983084E494E00E949D330E9492
:104E70009B9D0C94983083E50E94F2C0811103C081
:104E8000E6E4F3E10DC00E9456C08D3320F4809318
:104E90000A020C9498308CE380930A020C949830A8
:104EA00084918F010F5F1F4F882321F00E9418C14A
:104EB000F801F6CF40910A0250E060E070E08DE426
:104EC00094E00E94A08D8AE00E9418C10C94983052
:104ED00089E690E00E942079811111C0E4E5F4E0B8
:104EE00084918F010F5F1F4F882321F00E9418C10A
:104EF000F801F6CF0E947A6A8AE00E9418C11092E7
:104F0000F8090C94E83183E50E94F2C0882311F47B
:104F10000C9498300E9456C0182F8D3308F01CE373
:104F20001093070A0E9489EC6B017C01212F30E06D
:104F3000A8EEB3E00F94EA03C60ED71EE81EF91ED2
:104F4000C092030AD092040AE092050AF092060A7F
:104F50000C9498308091011683FF02C00C94983015
:104F600083E50E94F2C0882311F40C9498300E94CB
:104F700076C00F943E056D37710514F06DE770E053
:104F800070935917609358170E94346B0C949830A3
:104F90000E9494740C94983080E50E94F2C08111B4
:104FA00006C083E50E94F2C0882361F006C00E941B
:104FB00056C081110C949830F4CF0E9446C06F3FC8
:104FC000710510F06FEF70E070932B1160932A1150
:104FD0000C94983080E50E94F2C0811106C01092B6
:104FE0002B1110922A110C9498300E9446C0672B06
:104FF00011F00C949830F3CF0E941A6D0E94A2E435
:1050000010922B1110922A1168EE73E080E090E06C
:105010000E9433BB60E087E594E00E9426BC0C94BC
:105020009830209343030C94983083E50E94F2C09B
:105030008823A1F00E9476C020E030E04AE754E4E3
:105040000E94C5FD0F94430560930B0270930C0200
:1050500080930D0290930E020C94983088E50E9484
:10506000A9C081110C946D3189E50E94A9C08111FC
:105070000C946D318AE50E94A9C081110C946D31A8
:1050800085E40E94A9C081110C946D310E94A2E4B4
:105090000C94983083E50E94A9C0882311F40C94E5
:1050A00098300E9476C020E030E04AE754E40E9445
:1050B000C5FD0F9443056093FD097093FE0980932D
:1050C000FF099093000A0C9498303CE5C32E32E01F
:1050D000D32E42E0E42E46E1F42E10E0D6018D916D
:1050E0006D010E94A9C0882309F46DC0133009F036
:1050F00063C00E9476C04B015C0120E030E040EAD2
:1051000051E40E9460FD87FF4EC0A50194016091AB
:105110000E1670910F1680911016909111160F9423
:10512000D6042B013C019B01AC016091D61070911B
:10513000D7108091D8109091D9100E94C5FD60932E
:10514000D6107093D7108093D8109093D910A301E4
:105150009201609106117091071180910811909150
:1051600009110E94C5FD6093061170930711809389
:105170000811909309116091E6107091E7108091E9
:10518000E8109091E9100E9464FDA30192010E9431
:10519000C5FD0F9443056093E6107093E71080936C
:1051A000E8109093E91080920E1690920F16A0923C
:1051B0001016B092111607C00E9476C0F7016083E6
:1051C0007183828393831F5FF4E0EF0EF11C143030
:1051D00009F084CF0E94998EABC70E948CE383E5CF
:1051E0000E94F2C0882309F4BFC80E9446C0623002
:1051F000710509F0B9C80E94FF3A8BE50E9418C1F9
:105200006091EC097091ED098091EE099091EF09A0
:1052100042E00E94A4C14091F0095091F1096091CF
:10522000F2097091F3098AE694E00E94BD8D4091E5
:10523000F4095091F5096091F6097091F70987E634
:1052400094E00E94BD8D8DE50E9418C18AE00E9405
:1052500018C16EC784918F010F5F1F4F882321F003
:105260000E9418C1F801F6CF60E08CE395E00E943F
:10527000937361E085E395E00E94937361E08AE2B5
:1052800095E00E94937361E08AE195E00E94937338
:1052900060E081E195E00E94937361E087E095E032
:1052A0000E94937360E08DEF94E00E94937360E03E
:1052B00085EF94E00E94937360E087EE94E00E9493
:1052C000937360E089ED94E00E94937360E08AEC50
:1052D00094E00E94937360E08CEB94E00E949373DF
:1052E00060E086EA94E00E94937360E085E994E0D0
:1052F0000E94937360E080E894E00E94937361E001
:105300008DE694E00E94937313C78091DF1A909109
:10531000E01ADC012C91222321F060E00E9460BCA5
:1053200007C70E9482C904C70091DF1A1091E01AD2
:1053300083E0D12C40E08150E1F0F8019081292FE9
:105340002B7F2134C1F721812133A9F7913421F03A
:10535000953421F441E002C0DD24D39498012E5FFE
:105360003F4F89012F5F3F4FD8019C919032C9F385
:10537000E2CF442369F0E6E4F3E184917F01BFEFDB
:10538000EB1AFB0A882321F00E9418C1F701F5CF20
:10539000DD2069F0EDE0F6E084917F012FEFE21A65
:1053A000F20A882321F00E9418C1F701F5CFD80135
:1053B0008D918D01882309F459CB0E9418C1F7CF34
:1053C0000E94D2E7B5C62093530320935203B0C680
:1053D00083E50E94F2C0882319F00E9446C002C0F3
:1053E00060E070E08B01112702301105D4F0ECEA87
:1053F000F3E184918F010F5F1F4F811103C0E1E141
:10540000F6E004C00E9418C1F801F3CF84918F0127
:105410000F5F1F4F882309F48BC60E9418C1F80143
:10542000F5CF88E40E94F2C08823A1F00E9446C014
:10543000643B710534F0663F71052CF065EF70E058
:1054400002C064EB70E0F801EE0FFF1FE253F94E6B
:105450007183608386E40E94F2C08823A9F00E94D1
:1054600046C0F801EE0FFF1FEE52F94E71836083C4
:105470006F3F710519F014F06FEF70E077FF02C015
:1054800060E070E07183608382E40E94F2C0882350
:1054900009F44EC60E9446C06530710534F06F367F
:1054A00071052CF06EE670E002C065E070E0000F60
:1054B000111FF801E653F94E7183608339C688ECF9
:1054C00090E00E942079811133C684E40E94A9C033
:1054D000882309F441C00E9476C06B017C0111E071
:1054E00020E030E0A9010E9460FD811101C010E0C0
:1054F00010939E1820E030E0A901C701B6010E9478
:1055000060FD882349F10E9476C0E0917216B4E0F4
:10551000EB9FF0011124E656F74E6083718382837E
:10552000938320E030E0A90160919A1870919B1854
:1055300080919C1890919D180E9460FD81110CC073
:1055400080E090E0A0E4B0E480939A1890939B18D8
:10555000A0939C18B0939D180E9495E2E9C5BCE504
:10556000EB2EB2E0FB2E04EA18E1F70181917F01F6
:105570000E94A9C0882351F00E9476C00F94430571
:10558000D8016D937D938D939C9313970C5F1F4F60
:10559000B8E1043B1B0749F70E943E8EC9C5ACE544
:1055A000EA2EA2E0FA2E0AEF10E1F70181917F01C5
:1055B0000E94A9C0882341F00E9476C0D8016D9353
:1055C0007D938D939C9313970C5F1F4FB1E10A302D
:1055D0001B0759F7ADC583E50E94F2C08823A1F0EF
:1055E0000E9476C06093F2107093F3108093F410D1
:1055F0009093F5106093EE107093EF108093F0107D
:105600009093F11010E001C011E080E50E94F2C01B
:10561000882359F00E9476C06093F2107093F310C3
:105620008093F4109093F51010E082E50E94F2C090
:10563000882359F00E9476C06093F6107093F7109B
:105640008093F8109093F91010E084E50E94F2C066
:10565000882359F00E9476C06093EE107093EF108B
:105660008093F0109093F11063C5112309F460C585
:105670004091F2105091F3106091F4107091F51078
:1056800089E396E00E94BD8D4091F6105091F7108D
:105690006091F8107091F91086E396E00E94BD8D3C
:1056A0004091EE105091EF106091F0107091F11058
:1056B00083E396E00E94BD8D8AE00E9418C138C540
:1056C00081E50E94A9C0882351F00E9436C06093F2
:1056D0000E1170930F11809310119093111183E5A7
:1056E0000E94A9C0882351F00E9476C060932611C1
:1056F00070932711809328119093291184E50E94BB
:10570000A9C0882351F00E9476C060932211709343
:105710002311809324119093251188E50E94A9C03C
:10572000882351F00E9476C06093CA107093CB100A
:105730008093CC109093CD1089E50E94A9C0882356
:1057400051F00E9476C06093CE107093CF1080937A
:10575000D0109093D1108AE50E94A9C0882351F0FF
:105760000E9476C06093D2107093D3108093D410AF
:105770009093D51085E40E94A9C0882309F4D8C469
:105780000E9476C06093D6107093D7108093D81083
:105790009093D910CDC41F5FB4E0EB0EF11C133011
:1057A00011F40C94B421F60181916F010E94A9C0FB
:1057B000882389F30E9476C0D7016D937D938D93E2
:1057C0009C931397812F0E94E078E5CF0E945B574E
:1057D0008111AEC40FE71EE0EAECF9E0FDA7ECA7EB
:1057E0009E012F5F3F4F590178ED872E7EE0972E67
:1057F0001901F8016591759185919491ACA5BDA5AC
:10580000CD90DD90ED90FD90BDA7ACA7A7019601CE
:105810000F94F9032B013C01F101608371838283B2
:10582000938320E030E040EA51EC0F94200687FD9E
:105830000AC020E030E040EA51E4C301B2010E9416
:1058400060FD18162CF4F401849118160CF475C53B
:10585000D101CD90DD90ED90FD901D0120E030E074
:1058600040EA51ECC701B6010F94200687FD0AC03B
:1058700020E030E040EA51E4C701B6010E9460FD3B
:10588000181684F5ECEAF3E184918F010F5F1F4F46
:10589000811103C0E7E6F6E004C00E9418C1F801D8
:1058A000F3CF84918F010F5F1F4F882321F00E9457
:1058B00018C1F801F6CF61E089E596E00E9426BCA8
:1058C0000E94DC3B88E290E099A388A388EC90E0FA
:1058D0009DA38CA3BE01605E7F4FCE0184960E9483
:1058E0002BDB26C40C5F1F4FBFEF8B1A9B0AEBE824
:1058F000FEE0E017F10709F07CCF65E3E62E68E0F3
:10590000F62E10E0F50181919191A191B1915F0185
:10591000F70181939193A193B1937F01812F0E940D
:10592000E0781F5F133071F70E94CA7360E089E46A
:1059300096E00E9426BC83E992E09DA38CA304E636
:1059400010E019A308A3BE016C5D7F4FCE018096C5
:105950000E942BDB8AEB92E09DA38CA319A308A3E2
:10596000BE016C5D7F4FCE0180960E942BDBE0C3B1
:1059700084918F010F5F1F4F882321F00E9418C16F
:10598000F801F6CF83E50E94A9C0882321F00E9488
:1059900067C080932C02EDEAF6E084918F010F5FDF
:1059A0001F4F882321F00E9418C1F801F6CF809183
:1059B0002C02882319F0E5EAF6E002C0E9EAF6E0F5
:1059C00084918F010F5F1F4F811103C0EDE9F6E055
:1059D00004C00E9418C1F801F3CF84918F010F5FBA
:1059E0001F4F882321F00E9418C1F801F6CF2091A3
:1059F0003A1630913B1640913C1650913D166091FD
:105A000046167091471680914816909149160F944A
:105A1000FA03AB01BC018BE996E00E94BD8D209199
:105A20003E1630913F1640914016509141166091BC
:105A30004A1670914B1680914C1690914D160F940A
:105A4000FA03AB01BC0188E996E00E94BD8D20916C
:105A5000421630914316409144165091451660917C
:105A60004E1670914F1680915016909151160F94CA
:105A7000FA03AB01BC0185E996E00E94BD8DEDE81B
:105A8000F6E084918F010F5F1F4F882321F00E9461
:105A900018C1F801F6CF20913A1630913B1640918B
:105AA0003C1650913D166091200270912102809128
:105AB0002202909123020F94FA03AB01BC018BE800
:105AC00096E00E94BD8D20913E1630913F16409188
:105AD00040165091411660912402709125028091E8
